:020000040800F2
:1000000000000520953400086534000867340008B6
:10001000693400086B3400086D34000800000000EB
:100020000000000000000000000000006F34000825
:1000300071340008000000007334000875340008B3
:10004000E5340008E5340008E5340008E53400082C
:10005000E5340008E5340008E5340008E53400081C
:10006000E5340008E5340008E5340008E53400080C
:10007000E5340008E5340008E5340008E5340008FC
:10008000E5340008E5340008E5340008E5340008EC
:10009000E5340008E5340008E5340008E5340008DC
:1000A000E5340008E5340008E5340008E5340008CC
:1000B000E5340008E5340008E5340008E5340008BC
:1000C000E5340008E5340008E5340008E5340008AC
:1000D000E5340008E5340008E5340008E53400089C
:1000E000E5340008E5340008E5340008E53400088C
:1000F000E5340008E5340008E5340008E53400087C
:10010000E5340008E5340008E5340008E53400086B
:10011000E5340008E5340008E5340008E53400085B
:10012000E5340008E5340008E5340008E53400084B
:10013000E5340008E5340008E5340008E53400083B
:10014000E5340008E5340008E5340008E53400082B
:10015000E5340008E5340008E5340008E53400081B
:10016000E5340008E5340008E5340008E53400080B
:10017000E5340008E5340008E5340008000000001C
:10018000E5340008E5340008E5340008E5340008EB
:10019000E5340008E5340008E5340008E5340008DB
:1001A000E5340008E5340008E5340008E5340008CB
:0401B000E53400082A
:1001B40010B5054C237833B9044B13B10448AFF39D
:1001C40000800123237010BD1000002000000000F7
:1001D4004035000808B5034B1BB103490348AFF38E
:1001E400008008BD00000000140000204035000815
:1001F40053B94AB9002908BF00281CBF4FF0FF318A
:100204004FF0FF3000F07AB9ADF1080C6DE904CE7F
:1002140000F006F8DDF804E0DDE9022304B07047DD
:100224002DE9F0478C460D460446089E002B51D11B
:100234008A4217466DD9B2FA82FEBEF1000F0BD086
:10024400CEF1200C01FA0EF520FA0CFC02FA0EF79E
:100254004CEA050C00FA0EF44FEA174A250CBCFBD5
:10026400FAF81FFA87F90AFB18CC45EA0C4508FB93
:1002740009F3AB420AD9ED1908F1FF3280F023816A
:10028400AB4240F22081A8F102083D44ED1AA4B229
:10029400B5FBFAF00AFB105544EA054400FB09F9E2
:1002A400A14509D9E41900F1FF3380F00A81A14581
:1002B40040F2078102383C44A4EB090440EA0840B8
:1002C4000021002E61D024FA0EF400233460736000
:1002D400BDE8F0878B4207D9002E54D0002186E870
:1002E40021000846BDE8F087B3FA83F1002940F005
:1002F4008E80AB4202D3824200F2FA80841A65EB0C
:1003040003050120AC46002E3FD086E81010BDE85E
:10031400F08712B90127B7FBF2F7B7FA87FEBEF1EF
:10032400000F34D1EB1B3A0C1FFA87FC0121B3FBFD
:10033400F2F8250C02FB183345EA03450CFB08F3DD
:10034400AB4207D9ED1908F1FF3002D2AB4200F2FB
:10035400D1808046ED1AA3B2B5FBF2F002FB105532
:1003640043EA05440CFB00FCA44507D9E41900F159
:10037400FF3302D2A44500F2B8801846A4EB0C0463
:1003840040EA08409DE731463046BDE8F087CEF1AB
:10039400200405FA0EF307FA0EF720FA04F83A0CD3
:1003A40025FA04F448EA0308B4FBF2F14FEA1845CD
:1003B40002FB11441FFA87FC45EA044501FB0CF3D8
:1003C400AB4200FA0EF409D9ED1901F1FF3080F0C7
:1003D4008A80AB4240F2878002393D44EB1A1FFA0F
:1003E40088F5B3FBF2F002FB103345EA034500FB4A
:1003F4000CF3AB4207D9ED1900F1FF386FD2AB42D1
:100404006DD902383D44EB1A40EA01418FE7C1F14E
:10041400200722FA07F88B4005FA01F448EA03039F
:1004240020FA07FE4FEA134CFD404EEA040EB5FBDA
:10043400FCF94FEA1E440CFB19551FFA83F844EAF1
:10044400054509FB08F4AC4202FA01F200FA01FA8C
:1004540008D9ED1809F1FF3043D2AC4241D9A9F1D2
:1004640002091D442D1B1FFA8EFEB5FBFCF00CFB8C
:1004740010554EEA054400FB08F8A04507D9E418D6
:1004840000F1FF3529D2A04527D902381C4440EA9F
:100494000940A4EB0804A0FB02894C45C6464D461E
:1004A40015D312D056B1BAEB0E0364EB050404FA6B
:1004B40007F7CB401F43CC40376074600021BDE890
:1004C400F0871846F8E69046E0E6C245EAD2B8EB73
:1004D400020E69EB03050138E4E72846D7E74046F6
:1004E40091E78146BEE7014678E702383C4445E798
:1004F400084608E7A8F102083D442BE7704700BF0F
:1005040038B50E4A0E4B054618784FF47A73B3FB90
:10051400F0F31068B0FBF3F000F09CF8044658B90F
:100524000F2D09D8024629464FF0FF3000F05EF83F
:10053400044B20461D6038BD012038BD0C0000204E
:10054400000000200400002008B50B4B1A6842F498
:1005540000721A601A6842F480621A601A6842F4DF
:1005640080721A60032000F02FF80020FFF7C8FF04
:1005740002F05AFF002008BD003C0240034A044B2D
:1005840011681B780B441360704700BF60000020A3
:1005940000000020014B1868704700BF6000002075
:1005A40038B50446FFF7F6FF631C1CBF054B1B78E8
:1005B400054618BFE418FFF7EDFF401B8442FAD844
:1005C40038BD00BF00000020074AD36823F4E0636D
:1005D4001B041B0C43F0BF63000243F4003300F41C
:1005E400E0600343D360704700ED00E0174B30B583
:1005F400DC68C4F30224C4F10703251D042B28BFBF
:100604000423062D4FF0010505FA03F303F1FF332C
:100614008CBF033C00241940A14005FA04F4013CBA
:100624002240002842EA01024FEA0212ADBF00F163
:10063400604000F00F00064B00F56140B5BFD2B238
:10064400D2B21A5480F8002330BD00BF00ED00E0A0
:1006540014ED00E00138B0F1807F0AD2064B074A5E
:100664005860F02182F823100020072298601A6055
:1006740070470120704700BF10E000E000ED00E08B
:100684002DE9F04F85B00B68DFF8C4816E4ADFF8BE
:10069400C491019300230124019D9C402540AC4258
:1006A40040F0B8804C6824F0100C0CF1FF36012E99
:1006B4004FEA430E12D88768032606FA0EF627EA95
:1006C4000607CE6806FA0EF63E4386604768C4F312
:1006D400001627EA05079E403E4346600326C76886
:1006E40006FA0EF6F64307EA060A8F6807FA0EF7CB
:1006F40047EA0A07BCF1020FC76016D14FEAD30AD2
:1007040000EB8A0A03F0070BDAF820704FEA8B0B30
:100714004FF00F0C0CFA0BFC27EA0C0C0F6907FACC
:100724000BF747EA0C07CAF8207007683E4004F04C
:10073400030707FA0EFE4EEA06060660E60069D5D0
:100744004FF0000BCDF80CB0D8F844703F4E47F48E
:100754008047C8F84470D8F8447007F4804703977A
:10076400039F23F0030707F1804707F59C3703F045
:10077400030CD7F808A04FEA8C0C4FF00F0E0EFABA
:100784000CFEB0422AEA0E0E4BD006F58066B0424B
:1007940049D006F58066B04247D006F58066B0427F
:1007A40045D006F58066B04243D0484543D006F5AF
:1007B4000066B04241D006F58066B0423FD006F5EF
:1007C4008066B0423DD006F58066B04214BF0A266A
:1007D400092606FA0CF646EA0E06BE601668EF43D2
:1007E40014F4803F0CBF3E402E431660566814F448
:1007F400003F0CBF3E402E435660966814F4801FA1
:100804000CBF3E402E439660D668A40254BF3E40BF
:100814002E43D6600133102B7FF43DAF05B0BDE805
:10082400F08F5E46D5E70126D3E70226D1E70326FB
:10083400CFE70426CDE70526CBE70626C9E707263A
:10084400C7E70826C5E700BF003C0140000002409E
:1008540000380240001402400AB181617047090463
:10086400FBE7436931EA030308BF09048161704768
:10087400134908B58B6803F00C03042B03D0082B31
:1008840003D0104808BD104808BD4A684B68496841
:1008940013F4800314BF0C480A48C1F3881118BF2D
:1008A400002302F03F02A1FB0001FFF7A1FC044B6F
:1008B4005B68C3F3014301335B00B0FBF3F008BD95
:1008C400003802400024F40000127A002DE9F041BF
:1008D4000D46044610B90120BDE8F081444B1A6866
:1008E40002F00F028A4229D321688F072ED4C80749
:1008F40041D43F4B1A6802F00F02954267D3226835
:1009040051076DD4130707D53A4A2169936823F434
:10091400604343EAC1039360FFF7AAFF354B364AAD
:100924009B68C3F30313D35CD840344B1860344B37
:100934001868FFF7E5FD0020BDE8F081CAB21A701F
:100944001B6803F00F039942C5D1CDE7294B11F081
:10095400040F1EBF9A6842F4E0529A600E0742BF29
:100964009A6842F460429A609A68A06822F0F002A1
:1009740002439A60BBE762681E4B012A1DD11B68C3
:1009840013F4003FA7D01B4EB36823F003031343B3
:10099400B360FFF7FFFD41F288380746B368626829
:1009A40003F00C03B3EB820FA3D0FFF7F3FDC01BDE
:1009B4004045F3D90320BDE8F081911E01291B684D
:1009C40002D813F0007FDDE713F0020FDAE7EAB292
:1009D4001A701B6803F00F039D427FF47CAF8EE70F
:1009E4000449E0688B6823F4E05303438B6089E790
:1009F400003C024000380240183600080C00002079
:100A040004000020F7B502680446100608D5A8497A
:100A1400606BD1F88C3023F000630343C1F88C3051
:100A2400D10508D5A249A06BD1F88C3023F08053AE
:100A34000343C1F88C3012F0430F72D1236813F0D2
:100A44000C0F00F0BF809B4D994E00232B60FFF7E5
:100A5400A1FD074633689A0000F1F9802268530724
:100A64001AD5D6F88830D6F8881003F4403301F04C
:100A7400E0410B43216943EA8113A16943EA01631D
:100A8400C6F88830D6F88C30616A23F4F8530139FB
:100A940043EA0123C6F88C30170719D58449D1F8E5
:100AA4008830D1F8880003F4403300F070600343C9
:100AB400206943EA8013E06943EA0073C1F888308F
:100AC400D1F88C30A06A23F440330343C1F88C304E
:100AD400160617D5636BB3F1006F13D17449D1F8BF
:100AE4008830D1F8882003F0706302F0E0421343A9
:100AF400226943EA821362695208013A43EA0243D3
:100B0400C1F8883001232B60FFF744FD684D064689
:100B14002B68980058D4FFF73DFD801B0228F7D9B5
:100B24004DE0654D624E00232B60FFF733FD074611
:100B340033681B013ED42168C80706D5A3686268E0
:100B44001B0743EA8213C6F884308A0715D5584A2E
:100B5400E368D2F8840066681B0600F0E04043EACC
:100B640086130343C2F88430D2F88C00236A20F041
:100B74001F00013B0343C2F88C304B060AD5E368DF
:100B840062681B0643EA8213A26843EA0273484A76
:100B9400C2F8843001232B60FFF7FCFC444D064669
:100BA4002B681F013FF54AAFFFF7F4FC801B0228B6
:100BB400F6D904E0FFF7EEFCC01B0228B8D90320E5
:100BC40003B0F0BD18063DD42368990630D5002340
:100BD4000193374B394D1A6C42F080521A641B6CE6
:100BE40003F080530193019B2B6843F480732B60C3
:100BF400FFF7D0FC06462B68D9052FD52C4D2B6F5B
:100C040013F4407330D1E36A03F44072B2F5407FC9
:100C1400274A48D1916823F0704021F4F81120F458
:100C2400407001439160116FC3F30B030B431367CF
:100C3400206810F010001FBF214B94F830201A6078
:100C44000020BDE7636BB3F1006FBDD1FBE6FFF796
:100C5400A1FCC01B02287FF6FDAEB0E7FFF79AFCAB
:100C6400801B0228C7D9AAE7E26A02F440729342C1
:100C7400C9D02B6F134A0121116023F44073002162
:100C840011602B672B6FDA07BDD5FFF783FC41F2A8
:100C9400883706462B6F9B07B5D4FFF77BFC801B78
:100CA400B842F7D98BE7916821F4F811BAE700BF8D
:100CB400003802407000474268004742007000401C
:100CC400E0114742400E474203682DE9F341DD0736
:100CD400044610D4236898075BD423681A0700F1EC
:100CE4009D8023685B0700F1BB80A269002A40F065
:100CF4001C81002015E0A74B9A6802F00C02042A1C
:100D040007D09A6802F00C02082A0DD15B685902D8
:100D14000AD5A04B1B689A03DCD56368002BD9D194
:100D2400012002B0BDE8F08163689A4DB3F5803FBD
:100D340011D12B6843F480332B60FFF72BFC954DC6
:100D440006462B689B03C5D4FFF724FC801B64284C
:100D5400F7D90320E5E7B3F5A02F04D12B6843F4BA
:100D640080232B60E5E72A6822F480322A602A680F
:100D740022F480222A60002BDFD1FFF70BFC064609
:100D84002B689F03A6D5FFF705FC801B6428F7D9C1
:100D9400DFE7804B9A6812F00C0F07D09A6802F0D4
:100DA4000C02082A11D15B685E020ED4794B1A68D2
:100DB400950702D5E268012AB2D11A68216922F0A6
:100DC400F80242EAC1021A6087E7E268724BB2B1E4
:100DD40001221A60FFF7DEFB6E4D06462B6898076A
:100DE40007D52B68226923F0F80343EAC2032B607A
:100DF40073E7FFF7CFFB801B0228EFD9A9E71A603E
:100E0400FFF7C8FB634D06462B6899077FF565AF6E
:100E1400FFF7C0FB801B0228F6D99AE762695F4B93
:100E24007AB101221A60FFF7B5FB5A4D06466B6F83
:100E34009F073FF556AFFFF7ADFB801B0228F6D99D
:100E440087E71A60FFF7A6FB524D06466B6F9807BB
:100E54007FF547AFFFF79EFB801B0228F6D978E7A2
:100E64004C4B1A6C12F0805228D101921A6C42F049
:100E740080521A641B6C03F080530193019B01267A
:100E8400474D2B68D9051BD5A368424D012B27D1AB
:100E94002B6F43F001032B67FFF77CFB3D4D0746A7
:100EA40041F288382B6F9B0739D5002E3FF41DAFD4
:100EB400384A136C23F08053136416E70026DFE7E7
:100EC4002B6843F480732B60FFF764FB07462B68A1
:100ED400DA05D9D4FFF75EFBC01B0228F7D938E73F
:100EE400052B04D12B6F43F004032B67D0E72A6F43
:100EF40022F001022A672A6F22F004022A67002BDB
:100F0400CAD1FFF747FB41F2883807462B6F980791
:100F1400CBD5FFF73FFBC01B4045F7D919E7FFF7D7
:100F240039FBC01B4045BDD913E71A4DAB6803F02C
:100F34000C03082B3FF4F4AE1A4E0023022A33604C
:100F440038D1FFF727FB07462B6899012CD4226A76
:100F5400E3691343626A43EA8213E26A43EA02637F
:100F6400226B43EA0273A26A0A4C5208013A43EA2A
:100F740002436B6001233360FFF70CFB05462368D3
:100F84009A013FF5B6AEFFF705FB401B0228F6D9E0
:100F9400DFE600BF0038024000004742800E4742AF
:100FA4000070004060004742FFF7F4FAC01B0228BB
:100FB400CAD9CEE6FFF7EEFA04462B689B017FF50B
:100FC40098AEFFF7E7FA001B0228F6D9C1E600BF86
:100FD4002DE9F04F87B004460D4616469946DDF8D4
:100FE4004080FFF7D7FA07462DB9A36B43F000639F
:100FF400A363012010E094F83400C0B2012840F04B
:10100400F180E26D06EB090300219342A16306D946
:10101400A36B43F00073A36307B0BDE8F08F032311
:1010240084F834302068636CC162012B4FF4007182
:1010340018BF760200F0D5FC48B123686B4A9A6366
:10104400A36B1843A063012084F83400E4E74FF055
:10105400FF3300934FEA49230193049090234FF008
:10106400010A4FF0020B694620680293CDF80CB0D8
:10107400CDF814A000F0A2FCD14512D9C4F830B0C8
:101084003146206800F0DDFC90B12368574A9A632A
:10109400A36B1843A0630120002384F83400236366
:1010A400BAE7C4F830A03146206800F0B2FCEBE7A0
:1010B400DDF804A02068436B13F4957F436B17D0CD
:1010C400DE0509D5B9F1010F06D9636C032B03D0F2
:1010D40000F000FD0028D8D12368596B11F00801F5
:1010E40035D0424A9A63A36B43F00803A363D2E763
:1010F4001B0419D5BAF1000F16D02E1D05F1240BCF
:10110400206800F031FC030A06F8040C06F8033CDE
:10111400030C000E06F8023C06F8010C04365E458A
:10112400EED12035AAF1200AFFF734FAC01B40455E
:10113400C0D323682D4A9A63A36B43F00043A3638F
:10114400012384F8343000232363032064E75A6BBB
:1011540012F002020AD0254A9A63A36B012043F0DD
:101164000203A36384F83400216355E7596B8906AD
:101174000AD51E499963A36B012043F02003A3639E
:1011840084F83400226347E72E1D0AF1040A20681C
:10119400436B9B0207D440F23A538363012384F8E0
:1011A4003430002038E7AAEB0603DD42F3D000F028
:1011B400DBFB030A06F8040C06F8033C030C000EE0
:1011C40006F8023C06F8010CFFF7E4F9C01B804561
:1011D40006F10406DBD82368044A9A63A36B43F040
:1011E400004383E7A36B43F0005301E7FF0540008E
:1011F4002DE9F04788B004460E4691461F46FFF796
:10120400C9F980462EB9A36B43F00063A3630120A0
:1012140010E094F83400C0B2012840F0B780E26DC9
:1012240009EB070300219342A16306D9A36B43F0A2
:101234000073A36308B0BDE8F087032384F8343057
:101244002068636CC162012B4FF4007118BF4FEA30
:10125400492900F0C6FB48B123684E4A9A63A36B40
:101264001843A063012084F83400E3E74FF0FF3310
:1012740002937B0203939023049305900690012329
:1012840002A92068079300F099FB012F12D92023AB
:1012940023634946206800F004FC90B123683D4A6A
:1012A4009A63A36B1843A0630120002384F83400DD
:1012B4002363BFE7102323634946206800F0D9FB6A
:1012C400EBE7039D2068436B13F48D7F436B16D0CB
:1012D400DB0508D5012F06D9636C032B03D000F07E
:1012E400F9FB0028DAD12368596B11F0080128D0E2
:1012F400284A9A63A36B43F00803A363D4E75A0410
:101304000CD55DB106F1200A56F8043B2068019320
:1013140001A900F02CFBB245F6D1203DFFF73AF9C4
:10132400109BA0EB08009842CCD32368194A9A6317
:10133400A36BA363012384F83430002323630320C5
:1013440078E75A6B12F002020AD0124A9A63A36B2E
:10135400012043F00203A36384F83400216369E7A6
:10136400586B10F010000AD00A499963A36B01204E
:1013740043F01003A36384F8340022635AE740F275
:101384003A529A63012384F8343053E7A36B43F051
:1013940000533BE7FF054000436E9A0F0A70C3F306
:1013A40083624A70C3F301628A70C3F30742CA704E
:1013B400C3F30722DBB20A714B71836E1A0DCA8024
:1013C400C3F303420A72C3F3C0324A72C3F38032D6
:1013D4008A72C3F34032CA72C3F300320A73002222
:1013E4004A73426C10B5002A6BD1C26E40F6FC748D
:1013F40004EA830343EA92730B61C2F3C2630B757D
:10140400C2F302634B75C2F342538B75C2F382433A
:10141400C2F3C232CB750A760B690A7E02F0070268
:1014240002320133934043650A7A02F00F04012229
:10143400A2408265520A5343C3654FF400730366A6
:10144400C36EC3F380324A76C3F3C61203F07F033C
:101454008A76CB76036FDA0F0A77C3F341724A7741
:10146400C3F382628A77C3F38352CA77C3F34052C9
:1014740081F820200020C3F3004281F8210081F884
:101484002220C3F3C03281F82320C3F3803281F8D1
:101494002420C3F3403281F82520C3F3003281F8BD
:1014A4002620C3F3812281F82720C3F30122C3F34A
:1014B400460381F8282081F82930012381F82A3055
:1014C40010BD012A0FD1B0F86E201B0403F47C1365
:1014D40013430B610B6901339B024365C3654FF4EE
:1014E40000738365ABE70368054A9A63836B43F033
:1014F40080538363012380F83430184610BD00BF45
:10150400FF0540002DE9F04198B0002307930893AC
:1015140009930A930B9376230C930AAB044693E83E
:1015240007008DE8070007AB0ECB206800F000FA37
:101534000546002840F08E806E4F012638602068F2
:1015440000F01AFA3E602068069500F0F5FA0546A8
:10155400002879D1206800F017FB30B1A564206819
:1015640000F0EAFA10B105466EE0A664A36C012B04
:1015740062D04FF6FE76DFF8808100213746069B65
:10158400B34269D9069BBB4200F2AA8015F080459C
:101594004FF0010318BF1D4665642068ADF816308E
:1015A40000F0F2F9002800F09E80636C032B19D040
:1015B400206800F058FB00286DD10146206800F037
:1015C400FAF904216067206800F0F5F90821A067A2
:1015D400206800F0F0F90C21E067206800F0EBF9D6
:1015E400C4F88000636C032B4ED1636C032B59D178
:1015F4000421206800F0DFF9000DE0640DA9204605
:10160400FFF7CAFE0546002870D1226D0346120476
:10161400206800F079FA00283DD104F1100393E822
:1016240007008DE80700231D0ECB206800F080F929
:10163400284618B0BDE8F0810021206800F0E2FAE5
:10164400002896D04FF08055012384F83430A26BE3
:101654001543A5630125EBE7002993D1206800F029
:10166400D1FA05460028EFD14146206800F0E2FA9D
:101674000028E7D12946206800F09DF9069B013334
:1016840005460693C10F7AE70DF11601206800F0B4
:1016940015FB0028A9D0012584F83450A16B084318
:1016A400A063C5E7BDF8161021652068090400F0A1
:1016B400EFFA0028EFD10146206800F07CF90421FC
:1016C4006066206800F077F90821A066206800F0C1
:1016D40072F90C21E066206800F06DF9206787E755
:1016E4004FF08075B0E74FF08060D4E74FF0805042
:1016F400D1E700BFA0802542000010C110B5044608
:1017040008B9012010BD90F8343003F0FF0213B97A
:10171400027701F03BFE032384F834302046FFF7C0
:10172400F1FE0028EDD10123A063206384F8343056
:1017340010BD436C0B60836C4B60C36C8B60036D9A
:10174400CB60436D0B61836D4B61C36D8B61036E25
:10175400CB6100207047016D10B509040446006890
:1017640000F0FCFA014628B9206800F024F9C0F31F
:10177400432010BDA36B1943A1630020F7E70000C9
:10178400124B4FF4FA521B68B3FBF2F241F2883366
:10179400534313F1FF3315D3426B12F0450FF8D0C6
:1017A4001205F6D4436B5B0703D504238363184601
:1017B4007047436B13F0010301D00123F6E7C52200
:1017C4008263F4E74FF00043F1E700BF0C00002010
:1017D4000F4B4FF4FA521B68B3FBF2F241F2883319
:1017E400534313F1FF330FD3426B12F0450FF8D07C
:1017F4001205F6D4436B13F0040315BF0423C5226A
:1018040083638263184670474FF00040704700BFFF
:101814000C000020444B10B51B684FF4FA54B3FB82
:10182400F4F35A43002A4AD0436B13F0450F08D00F
:101834001C0506D4436B5B0705D504238363184654
:1018440010BD013AEEE7436BDC0703D50123836344
:10185400012010BDC52383630369DBB29942F7D12C
:1018640043693248184000285CD0002B2ADB5A0018
:101874002BD49C002BD4D9002BD41A012CD45C017A
:101884002DD4D9012ED41A022FD45C0230D499025B
:1018940031D4DA0232D45C0333D4990334D4DA0376
:1018A40035D41C0436D4590437D49A0438D413F0EC
:1018B400080F0CBF4FF480304FF4000010BD4FF000
:1018C400004010BD4FF0007010BD402010BD8020BE
:1018D40010BD4FF4807010BD4FF4007010BD4FF474
:1018E400806010BD4FF4006010BD4FF4805010BDF7
:1018F4004FF4005010BD4FF4804010BD4FF4004031
:1019040010BD4FF4003010BD4FF4802010BD4FF4D3
:10191400002010BD4FF4801010BD4FF4001010BD16
:101924004FF4800010BD00BF0C00002008E0FFFD54
:1019340084B010B503AC84E80E000499039B42689C
:101944000B4305990B4306990B4307990B430899DD
:10195400BDE8104022F4FD420B4322F07F02134302
:10196400436004B000207047D0F8800070470B68D3
:10197400C0F880300020704708B5032303600220BC
:10198400FEF70EFE002008BD006800F0030070475B
:101994000B6810B583608C684B68C2682343CC68BD
:1019A4000969234322F47F620B4322F00F0213439D
:1019B400C360002010BD1430405870470B6810B548
:1019C40043624B688362CC688B68C26A23430C69A8
:1019D400496923430B4322F0F7021343C3620020F7
:1019E40010BD30B587B04023039300230546019111
:1019F4001024049301A94FF4806305930294FFF724
:101A0400C7FF41F2883221462846FFF703FF07B09B
:101A140030BD30B587B040230393002305460191C0
:101A24001124049301A94FF4806305930294FFF7F2
:101A3400AFFF41F2883221462846FFF7EBFE07B09C
:101A440030BD30B587B04023039300230546019190
:101A54001224049301A94FF4806305930294FFF7C1
:101A640097FF41F2883221462846FFF7D3FE07B09C
:101A740030BD30B587B04023039300230546019160
:101A84001824049301A94FF4806305930294FFF78B
:101A94007FFF41F2883221462846FFF7BBFE07B09C
:101AA40030BD30B587B04023039300230546019130
:101AB4001924049301A94FF4806305930294FFF75A
:101AC40067FF41F2883221462846FFF7A3FE07B09C
:101AD40030BD000030B587B00023054601930C24C7
:101AE4004022049301A94FF4806303920593029466
:101AF400FFF74EFF034A21462846FFF78BFE07B047
:101B040030BD00BF00E1F50530B587B04023039335
:101B1400002305460724049301A94FF4806301922E
:101B240005930294FFF734FF41F288322146284698
:101B3400FFF770FE07B030BD10B586B000230193E7
:101B440002930393049301A94FF48063059304461D
:101B5400FFF71EFF0B4B4FF4FA521B68B3FBF2F274
:101B640041F28833534313F1FF3307D3626B1206F8
:101B7400F9D5C523A363002006B010BD4FF0004083
:101B8400FAE700BF0C00002010B586B04FF4D573FF
:101B9400019308230293402303930023049301A990
:101BA4004FF4806305930446FFF7F2FE144B4FF4A1
:101BB400FA521B68B3FBF2F241F28833534313F138
:101BC400FF331AD3626B12F0450FF8D01205F6D426
:101BD400636B5B0703D50420A06306B010BD626B82
:101BE40012F0010201D00120F6E7606B10F0400012
:101BF400F3D04023A3631046EFE74FF00040ECE737
:101C04000C00002030B587B0402303930023054621
:101C140001913724049301A94FF48063059302943E
:101C2400FFF7B6FE41F2883221462846FFF7F2FD5F
:101C340007B030BD10B586B02923029341F00041AE
:101C44004023039341F4801100230446019104933B
:101C540001A94FF480630593FFF79AFE2046FFF72E
:101C6400B7FD06B010BD10B586B0002302220446AD
:101C7400019302920493C0224FF4806301A903925A
:101C84000593FFF785FE2046FFF77AFD06B010BDE9
:101C940010B586B009230293C0230393002304469E
:101CA4000191049301A94FF480630593FFF770FE3B
:101CB4002046FFF765FD06B010BD000030B587B0C3
:101CC4000023032201930292049340224FF4806381
:101CD4000D4601A9039205930446FFF759FE1E4BD6
:101CE4004FF4FA521B68B3FBF2F241F288335343C8
:101CF40013F1FF3328D3626B12F0450FF8D01205AD
:101D0400F6D4636B580703D50420A06307B030BD35
:101D1400636BD90701D50120F7E72369DBB2032BF5
:101D240015D1C523A363636913F4604002D11B0C6E
:101D34002B80EBE75A040CD413F4004F0CBF4FF480
:101D440080304FF48050E1E74FF00040DEE701209F
:101D5400DCE74FF40050D9E70C00002030B587B021
:101D6400402303930023054601910D24049301A904
:101D74004FF4806305930294FFF70AFE41F2883220
:101D840021462846FFF746FD07B030BD034B1A181D
:101D940003EB8003107A5B685B68184754000020EB
:101DA400064B1A5C42B901221A541A1803EB800339
:101DB400107A5B681B6818470020704754000020A5
:101DC40030B4054C251804EB800460688468287AD4
:101DD400A44630BC604700BF5400002030B4054C1A
:101DE400251804EB80046068C468287AA44630BCD3
:101DF400604700BF54000020054B10B41C1803EBCF
:101E04008003207A5B685DF8044B1B69184700BFA8
:101E14005400002042884378007843EA022340EAD1
:101E2400032070470B0A017043700B0C090E83707A
:101E3400C1707047024400F8011B9042FBD1704707
:101E4400154BF0B500252A461C461E68A6B1076846
:101E5400BE4212D15F688668B7420ED19F68466958
:101E6400B7420AD1B1B904EB02129389B3F5807F6A
:101E740014BF00201020F0BD01250132022A03F115
:101E84001003E2D10DB10020F0BD02290CBF0020E7
:101E94001220F0BD1020F0BD300000201C4AF0B527
:101EA4000568002316461468AC4207D15768846855
:101EB400A74203D197684469A7421DD00133022B7E
:101EC40002F11002EFD1336813B13369EBB9012386
:101ED4001C013219355184684069906000205460B7
:101EE400908179B906EB03129289013292B206EB22
:101EF4000316581CB281F0BD0029F3D006EB03127F
:101F0400928912B94FF48072F1E70020F0BD00BF4E
:101F140030000020013801280ED8094A0301D118E5
:101F2400898921F4807080B208B1481E80B2D1182A
:101F3400888118B9D050704702207047002070473C
:101F44003000002043690239023B99423DBF438976
:101F5400806A01FB030000207047C36A02680433EF
:101F6400490A5289B1FBF2F1186830B1814202D3B7
:101F7400091A0833F8E7586808447047026810B52E
:101F840052B111460B4611F8014B202C0CD93A2CB6
:101F9400F8D1511C8B4202D04FF0FF3010BD1278A3
:101FA400302AF9D101330360002010BD38B50D4645
:101FB400044618B9092000232B6038BD0368002BA0
:101FC400F8D01A78002AF5D08188DA889142F1D1C4
:101FD4005878FFF7DBFE10F00100EBD12368EBE744
:101FE40001380A4411F8013B00F8013F9142F9D14C
:101FF4007047CA7E8B7E032843EA022301BF487DD3
:102004000A7D42EA002243EA024318467047C2F3BB
:1020140007238A76CB760378032B01BF120C0A754B
:10202400120A4A757047F8B5C56A00F130070446CC
:1020340001232A4639464078FFF7D0FEA0B9236A27
:10204400A269E070EB1A934201D30020F8BDA67890
:10205400012EFAD9A36960781D442A460123394622
:10206400FFF7BCFE013EF3E70120F8BDC3780BB1D6
:10207400FFF7D9BF18467047F8B50446FFF7F6FFD7
:102084000546002842D12378032B37D12779012F25
:1020940034D104F1300601464FF400723046FFF7A4
:1020A400C9FE552384F82E32AA2384F82F325223F2
:1020B4004122722184F8303084F83130612384F86D
:1020C400323084F8332084F8162284F8173284F8E6
:1020D400141284F8151204F506702169FFF7A2FEA4
:1020E400E16804F50770FFF79DFEE269607801324C
:1020F400E2623B463146FFF771FE2571002211462C
:102104006078FFF779FE003018BF0120F8BDC36A7C
:102114008B4270B506460D4612D0FFF7A7FF044662
:1021240060B92A46012306F130017078FFF748FEB2
:1021340000281CBF4FF0FF350124F562204670BD16
:102144000024FBE7002310B5C3704FF0FF33C362D4
:102154000446FFF7DCFF30BB94F82F2294F82E32AC
:1021640043EA02234AF6552293421ED194F83030B2
:10217400E92B05D0236B104A03F0FF13934216D1C9
:1021840004F16600FFF746FE0C4B20F07F409842B6
:102194000FD004F18200FFF73DFE094B984214BFB3
:1021A4000220002010BD042010BD032010BD022019
:1021B40010BD002010BD00BFEB009000464154004C
:1021C400464154332DE9F043002385B00B600F469C
:1021D4001546FFF7D3FE061EC0F24081A34B53F809
:1021E4002640002C00F03C813C60237805F0FE057D
:1021F40073B16078FFF7CAFDC10709D4002D00F060
:10220400318110F0040000D00A2005B0BDE8F0834D
:102214000023F0B223706070FFF7C2FDC20700F123
:1022240023810DB14307EFD400212046FFF78AFF35
:10223400022840F0F78004F5FB75002115F8040C22
:1022440010B12846FFF7E6FD4DF8210001310429BD
:1022540005F11005F2D100255DF82560002E00F08F
:10226400D88031462046FFF76DFF012800F2D28066
:1022740094F83C2094F83B3043EA0223B3F5007F02
:1022840040F0D48094F8473094F8465055EA03253A
:1022940004D104F15400FFF7BDFD054694F84090C5
:1022A400A56109F1FF33012B84F8029000F2BE808E
:1022B40094F83D70BBB26381002B00F0B7807B1EA5
:1022C4003B4240F0B38094F8423094F8418048EAAD
:1022D400032818F00F0FA4F8088040F0A78094F8A2
:1022E400441094F8430050EA012003D104F1500053
:1022F400FFF790FD94F83F3094F83E2052EA032211
:1023040000F0948005FB09F302EB181E9E4470450F
:10231400C0F08C80A0EB0E01B1FBF7F1002900F0B6
:1023240085804FF6F570814200F2848040F6F5779F
:10233400B9428CBF022701270231324406EB0E005A
:10234400032F6161E6612262A06275D194F85B207B
:1023540094F85A3053EA022368D1B8F1000F65D1DA
:1023640004F15C00FFF756FD6062890001F2FF1181
:10237400B5EB512F5AD34FF0FF332361E360032FA2
:102384004FF0800323712FD194F8612094F86030CA
:1023940043EA0223012B27D1711C2046FFF7B7FE25
:1023A40010BB94F82F2294F82E32207143EA0223B2
:1023B4004AF65522934217D104F13000FFF72AFD63
:1023C4002B4B984210D104F50570FFF723FD294BE0
:1023D400984209D104F50670FFF71CFD206104F54D
:1023E4000770FFF717FDE060234A27701388013355
:1023F4009BB21380E380214B1A68944204BF0022ED
:102404001A601A6994424FF000007FF4FEAE18611E
:10241400FBE603200135042D7FF41EAF042805D10B
:102424000120F2E60428FBD0012801D90D20ECE6B6
:1024340000261DE703277FE7B8F1000FF6D0022F2F
:102444004FEA410018BF4018134418BF01F00101BE
:1024540063620CBF014601EB500187E70B20D4E611
:102464000C20D2E62846D0E60320CEE62C0000203D
:1024740052526141727241615000002030000020CC
:1024840001292DE9F04705460C46174672D94369E0
:1024940099426FD20378022B3FD0032B50D0012BEB
:1024A40068D101EB5108016A01EB5821FFF72FFEB7
:1024B400064638BB05F1300908F1010AC8F30808DB
:1024C40014F001041FBF19F8083003F00F023B0198
:1024D40003F0F00314BF1343FBB209F80830296A70
:1024E4000123EB7001EB5A212846FFF710FE064644
:1024F40040B9CAF3080A44B1C7F3071709F80A70C8
:102504000123EB703046BDE8F08719F80A30C7F3B1
:10251400032723F00F031F43F0E7016A01EB1421A3
:10252400FFF7F5FD06460028ECD1640005F1300301
:1025340004F4FF741A191F55C7F307275770DFE710
:10254400016A01EBD411FFF7E2FD06460028D9D158
:10255400A40005F1300304F4FE741C442046FFF784
:1025640059FC27F0704700F0704139432046FFF7CB
:1025740059FCC5E70226C5E70129F8B505460C460E
:1025840052D9436999424FD20378022B29D0032BA5
:1025940038D0012B48D101EB5106016A01EB5621D9
:1025A400FFF7B5FD10B14FF0FF30F8BD771C296A75
:1025B400C6F308062E4401EB5721284696F83060EE
:1025C400FFF7A5FD0028EED1C7F308073D44E30754
:1025D40095F8300046EA00204CBF0009C0F30B0018
:1025E400F8BD016A01EB1421FFF791FD0028DAD14F
:1025F4006400303504F4FF742B19285D5B7840EADD
:102604000320F8BD016A01EBD411FFF780FD002817
:10261400C9D1A40005F1300004F4FE742044FFF78E
:10262400F9FB20F07040F8BD0120F8BD2DE9F04120
:10263400804605680F4671B9EE68F6B16B699E4233
:1026440028BF012634466B6901349C4218D3012EFD
:1026540015D8002409E02846FFF78EFF0128044618
:1026640037D9431C04D14FF0FF342046BDE8F08134
:102674006B699842F9D33E46E4E70126E2E7022477
:102684002146D8F80000FFF777FF30B1012820D0A9
:102694000130E8D0B442D6D1DBE74FF0FF32214617
:1026A4002846FFF7EDFE90B957B96A692B69EC60CB
:1026B400023A93420FD92B7943F001032B71D4E7EB
:1026C400224639462846FFF7DBFE0028EDD00128D4
:1026D400C9D00124C9E7013B2B61ECE7F8B50D46ED
:1026E400012D0746114601D80220F8BD046863692C
:1026F4009D42F9D22AB14FF0FF322046FFF7C0FEC7
:1027040008BB29463868FFF737FF064608B900209A
:10271400F8BD0128E8D0431C14D0002229462046E5
:10272400FFF7AEFE78B962692369911E8B4205D228
:1027340001332361237943F0010323719642354623
:10274400DFD3E4E70120F8BD826838B500230546ED
:102754000468436192B92378022B01D9636A73B97F
:1027640023890BB9022038BD636AEB61EB69AA6166
:10277400002BF7D030342C62002038BD1346618919
:102784001A4661B911462868FFF7F6FE431C024653
:102794000BD00128E6D963699842F3D3E2E71946DE
:1027A4002046FFF7CFFBE861E0E7012038BDC369AD
:1027B4002DE9F04705460F46ABB1426902F1200806
:1027C400B8F5001F0FD2C8F308090468B9F1000F67
:1027D4004FD181690133C36141B92389B3EB581FD8
:1027E40047D80023EB610420BDE8F0876389013BEF
:1027F40013EA58233DD12046FFF7BEFE01280646C2
:1028040002D80220BDE8F087421C02D10120BDE8B5
:10281400F0876369984226D3002FE2D0A96928463D
:10282400FFF704FF0646002837D00128E9D0431CEF
:10283400ECD02046FFF71AFC07460028E6D10146F3
:102844004FF4007204F13000FFF7F4FA31462046E9
:10285400FFF778FB4FF0010AE06263899F4210D3CF
:10286400E36ADF1BE762AE6131462046FFF76AFB8D
:10287400E86130344C44C5F814802C620020BDE873
:10288400F08784F803A02046FFF7CDFB0028BDD1D4
:10289400E36A01330137E362DFE70720BDE8F0872D
:1028A4002DE9F843076804460B782F2B0D4601F1F8
:1028B4000101F9D05C2BF7D00023A3602B781F2BE8
:1028C40059D9DFF85C8104F124060B22202130461B
:1028D400FFF7B0FA002205F1FF3E114608201EF86A
:1028E400013F202B01F101010BD92F2B4BD168188B
:1028F400411B10F801EBBEF12F0FF9D0BEF15C0FB4
:10290400F6D00D44002A54D094F82420D4F8009032
:10291400E52A04BF052284F82420212B34BF042394
:10292400002384F82F302046FFF70EFF002845D1FE
:10293400E1694846FFF7EBFB00283FD1236A1A7888
:10294400002A46D0DA7A02F03F02A271DA7A11073D
:102954000CD403F10B0E314613F8012B11F801CB03
:102964009E45A2EB0C0227D0002AF5D00021204678
:10297400FFF71DFFDAE7802384F82F302046BDE8F7
:10298400F843FFF7E1BE5C2BB1D02E2B36D090423A
:102994000FD913F0800F18BF803BDFF8889018BF61
:1029A40018F8033019F801CFBCF1000F2BD06345A0
:1029B400F8D10620BDE8F883002AD7D194F82F3047
:1029C40048B1042829D113F0040F08BF0520BDE83D
:1029D400F8830420F2E75A071FD4A379DB060AD54B
:1029E40063693878C3F3080307F130011944FFF72A
:1029F40000FBA06067E70520BDE8F8830B28D8D06A
:102A040008220B206BE7A3F1610CBCF1190F01D86C
:102A1400203BDBB2B354013261E7BDE8F88300BF69
:102A240075350008F435000870B505460668FFF7EB
:102A34008BFE044628BBE9693046FFF768FB044671
:102A4400F8B92B6A1B78E52B14D1E9693046FFF7F6
:102A54005EFB044660B901462022286AFFF7EAF9C2
:102A64000B2205F12401286AFFF7BAFA0123F37057
:102A7400204670BD002BE8D001212846FFF797FEC1
:102A8400D7E7042C08BF0724F2E700007FB50190C4
:102A940004A8009140F8041D1646FFF76FFA051EBE
:102AA4001FDB124951F825405CB1114B1A6894425E
:102AB40004BF00221A601A690020944208BF1861FA
:102AC4002070019808B10023037041F8250030B14B
:102AD400012E08D1002201A96846FFF773FB04B058
:102AE40070BD0B20FBE70020F9E700BF2C0000209D
:102AF400300000202DE9F04790B090460191044643
:102B0400002800F0CE8002F03F052A4603A901A860
:102B1400FFF758FB074638BB10AE039B46F8303D21
:102B240001993046FFF7BCFE58B99DF93F30002BA0
:102B34001EDB15F03E0F14BF012100213046FFF7C4
:102B44007FF918F01C0F73D0A0B1042809D1714B80
:102B54001A68002A00F0DA801B69002B00F0D68086
:102B6400122045F0080570B100232360074692E067
:102B74000620E6E79DF8163013F0110F63D118F024
:102B8400040F40F0BD8028073CD500F057FA0246F8
:102B940001460C980E30FFF745F90C981146163093
:102BA400FFF740F90C9BDDF80C902022DA72DDF877
:102BB40030A099F800005146FFF71BFA0022514655
:102BC40080464846FFF723FA0C9B00221A775A776F
:102BD4009A77DA77039B0121D970B8F1000F11D0ED
:102BE40041463046D3F82C90FFF778FD0028BBD13E
:102BF40049460398FFF78BFA039A08F1FF33D36031
:102C04000028B1D1039B2807DB6A636248BF45F003
:102C1400400515F0FE0F0C9BA36214BF0121002197
:102C24003046FFF73BF9206100283CD102209BE7A6
:102C3400002899D19DF81630DA0663D418F0020FF3
:102C4400E0D0DB07DED507208EE72068FFF794FC91
:102C54000128014623D9421C50425041A5EB0805E6
:102C6400002849D0E16100287FF47EAFC5F3080352
:102C74008BB1DDF80C804046FFF764F90028D5D00D
:102C840000EB552222620123314698F80100FFF738
:102C940097F8002838D1384610B0BDE8F0870220F4
:102CA400DCE70927F7E7039EDDF8308030784146FA
:102CB400FFF79FF9A06008F11C00FFF7ABF8F38859
:102CC4002660002104F13006E060A380E1622575EE
:102CD40061752162A1614FF400723046FFF7AAF8D2
:102CE400AB06D8D5E568002DD5D0039BA168B3F811
:102CF4000A80A5614FEA4828A845A6D30020B1E779
:102D0400082031E704202FE701202DE73046FFF7A4
:102D14008BFE26E7300000202DE9F04F9B4685B05E
:102D240000238946CBF8003003A904461746FFF771
:102D34003DF9064658BB667D4EBB237D9A0740F19C
:102D4400AE80A369FB4228BFDF4304F1300AD7B148
:102D5400A169C1F30803002B40F08F80039B5B89BA
:102D6400013B13EA5123019324D131B9A068A0B9DE
:102D740001462046FFF75AFC04E0E36A5BB12046B3
:102D8400FFF7EBF848B9237D43F040032375304641
:102D940005B0BDE8F08FE169EBE7012802D1022616
:102DA4006675F4E7431C01D10126F9E7A368E061E5
:102DB40003B9A06094F91430002B0CDA0398226A4A
:102DC400407801235146FFF709F80028ECD1237D10
:102DD40003F07F032375039BE16900931846FFF713
:102DE400B1F80028DBD0019B7D0A03EB000832D048
:102DF400009B019A5B8900982A449A4288BF019AF1
:102E0400407888BF9D1A2B4642464946FEF7E6FFA6
:102E14000028C9D1216AA1EB08018D420AD94FF4D7
:102E2400007209EB41215046FFF7DAF8237D03F0E5
:102E34007F0323756D02A369E2682B44A3619A4260
:102E44002CBFE260E360DBF800302B44A944CBF8EC
:102E540000307F1B7BE7236A98450CD0A269E368A6
:102E64009A4208D200980123424651464078FEF720
:102E7400A7FF002898D1C4F82080A069C0F30800F7
:102E8400C0F50075BD4228BF3D462A464946504418
:102E9400FFF7A6F8237D63F07F032375CBE70726AE
:102EA40075E7F7B501A90446FFF780F80546002841
:102EB4003AD1237D5A0637D51B060CD50198226AD0
:102EC4004078012304F13001FEF788FF78BB237DAD
:102ED40003F07F03237500F0B1F8616A0746019897
:102EE400FFF715F90546F8B9A66AF37A43F020030B
:102EF400F372A26820683146FFF789F8E16806F1A9
:102F04001C00FEF78FFF394606F11600FEF78AFF14
:102F14000198B5740123F574C370FFF7ADF8237DF0
:102F240023F0400305462375284603B0F0BD012570
:102F3400FAE713B50446FFF7B4FF48B901A92046E0
:102F4400FFF734F820B92069FEF7E4FF00B92060E8
:102F540002B010BD30B50F4B5D7A05F0FF04B5B972
:102F64005D7A5C555D7A03EB85056860587A184490
:102F740002725A7AD2B2501CC0B258723A2330321A
:102F84004B702F230A708B70CC70204630BD01200B
:102F940030BD00BF540000200022FFF7DBBF00005B
:102FA40007B501208DF807009DF80730834202D150
:102FB4000248FEF7A3FB03B05DF804FBCC04002039
:102FC40007B5009313460A4601460448FEF700F885
:102FD400003018BF012003B05DF804FBCC040020CE
:102FE40007B5009313460A4601460448FEF700F964
:102FF400003018BF012003B05DF804FBCC040020AE
:1030040008B50348FEF7A7FB043818BF012008BD24
:10301400CC04002001460148FEF78BBBCC04002001
:1030240008B503490348FFF7B7FF034B187008BD01
:10303400650000200436000864000020002070476A
:103044002DE9F0418CB01422002107A800F06EFA9B
:103054000024374B01941A6BDFF8E080354F364E6D
:1030640042F004021A631A6B02F004020192019AFC
:1030740002941A6B42F001021A631A6B02F0010205
:103084000292029A03941A6B42F008021A631A6BB2
:1030940002F008020392039A04941A6B42F48062C9
:1030A4001A631A6B02F480620492049A05941A6BF0
:1030B40042F080021A631A6B02F080020592059AAC
:1030C40006941A6B42F040021A631B6B03F0400330
:1030D4000693224640463021069BFDF7BDFB22465F
:1030E40038460821FDF7B8FB224630464021FDF75B
:1030F400B3FB0125302307A940460793089509949B
:103104000A94FDF7BDFA082307A9384607930895E2
:1031140009940A94FDF7B4FA402307A930460793AB
:10312400089509940A94FDF7ABFA0CB0BDE8F08158
:10313400003802400028024000180240000C0240FF
:1031440070B5A4B03422002108A800F0EFF91422CD
:10315400002103A800F0EAF900213C2215A800F0A0
:10316400E5F90024204B01941A6C42F080521A6451
:103174001B6C1E4A03F080530193019B0294136855
:1031840023F4404343F48043136013680F9403F41F
:1031940040430293029B10230C9308231093322381
:1031A40002250126119308A80323139308950B966F
:1031B4000E9512951495FDF787FD0F230393314661
:1031C4004FF4805303A80693049505940794FDF7E0
:1031D4007DFB4FF4C07315A8159322942394FDF737
:1031E40011FC24B070BD00BF0038024000700040E4
:1031F40000B5ADF28C4DFDF7A7F9FFF7A1FFFFF77E
:103204001FFF00F0B3F8FFF70BFF01221E490AA8C5
:10321400FFF73CFC002835D140211C48FDF721FB79
:103224001B4B06AC03F1100518685968224603C20B
:103234000833AB421446F7D10A2206A996A8FFF731
:1032440059FC144B02AA03F108051868596814467E
:1032540003C40833AB422246F7D118681B792060B7
:1032640002A90D22237196A801ABFFF755FD96A87C
:10327400FFF75FFE4FF47A70FDF792F910210648CC
:10328400FDF7EFFAFEE700BF6500002000180240DA
:103294005835000868350008000C024010B5064C8B
:1032A40001232370FFF7ACFE234618B9227802F0FD
:1032B400FE022270187810BD0800002010B5054CDD
:1032C40001232370FFF76CFE10B9FFF7E7FF2070AE
:1032D400207810BD08000020FFF7E0BF08B50846BD
:1032E40011461A464FF0FF33FFF76AFE20B9FFF785
:1032F40087FE0028FBD108BD012008BD10B5124B84
:103304001B78DB0788B014461BD4032903D8DFE8F5
:1033140001F010050B12042008B010BD6846FFF739
:1033240079FE069B236004E06846FFF773FE079B63
:1033340023800020F0E76846FFF76CFE079B5B0ADA
:10334400F0E70320E8E700BF0800002008B50846BE
:1033540011461A464FF0FF33FFF742FE20B9FFF73C
:103364004FFE0028FBD108BD012008BD054B064ACD
:103374001A6000225A609A60DA601A615A619A618E
:10338400704700BFCC040020002C0140F0B5044677
:1033940089B01422002103A800F0C8F822681F4B4A
:1033A4009A4239D103F58633002400945A6C1C48A0
:1033B40042F400625A645A6C02F400620092009A69
:1033C40001941A6B42F004021A631A6B02F00402AD
:1033D4000192019A02941A6B42F008021A631B6B61
:1033E40003F008030C250293029B07954FF48853BE
:1033F400022703260DEB0501039304970696FDF7B8
:103404003FF904230DEB0501064803930497059443
:1034140006960795FDF734F909B0F0BD002C01407C
:1034240000080240000C024082B00C4B00210091C5
:103434005A6C42F480425A645A6C02F480420092FC
:10344400009A01911A6C42F080521A641B6C03F0CA
:1034540080530193019B02B0704700BF00380240C3
:103464007047FEE7FEE7FEE7FEE7704770477047E8
:10347400FDF784B8054BD3F8882042F47002C3F8F2
:1034840088204FF000629A60704700BF00ED00E0B2
:10349400DFF834D0002103E00C4B5B584350043177
:1034A4000B480C4B42189A42F6D30B4A02E0002315
:1034B40042F8043B094B9A42F9D3FFF7DBFF00F0D3
:1034C40011F8FFF795FE7047000005203836000814
:1034D40000000020100000201000002050050020F3
:1034E400FEE7000070B50D4E0D4CA41BA410002582
:1034F400A54209D10B4E0C4C00F020F8A41BA410DB
:103504000025A54205D170BD56F8253098470135F0
:10351400EEE756F8253098470135F2E730360008D3
:1035240030360008303600083436000802440346BA
:10353400934200D1704703F8011BF9E7F8B500BFC7
:10354400F8BC08BC9E467047F8B500BFF8BC08BC80
:043554009E467047D8
:103558004D45525645424552494B2E545854000049
:1035680048656C6C6F20576F726C6400004355455A
:103578004141414143454545494949414145929267
:103588004F4F4F5555594F554F9C4F9E9F41494F4F
:1035980055A5A5A6A7A8A9AAABACADAEAFB0B1B2C8
:1035A800B3B4414141B8B9BABBBCBDBEBFC0C1C2CA
:1035B800C3C4C54141C8C9CACBCCCDCECFD1D145F2
:1035C800454549494949D9DADBDCDD49DF4FE14F57
:1035D8004F4F4FE6E8E85555555959EEEFF0F1F2DF
:1035E800F3F4F5F6F7F8F9FAFBFCFDFEFF222A2BB7
:1035F8002C3A3B3C3D3E3F5B5D7C7F00C13200087E
:10360800DD320008E13200085133000801330008B8
:10361800000000000000000001020304060708097A
:08362800FCCBFF7F0100000054
:04363000D9010008B4
:04363400B5010008D4
:103638000100000010000000010000000024F40058
:040000050800349526
:00000001FF
